:020000040800F2
:100000000010002099030008E5030008E50300083C
:1000100000000000000000000000000000000000E0
:10002000000000000000000000000000E5030008E0
:100030000000000000000000E5030008E5030008E0
:10004000E5030008E5030008E5030008E5030008F0
:10005000E5030008E5030008E5030008E5030008E0
:1000600000000000E5030008E5030008E5030008C0
:10007000E5030008E5030008E5030008E5030008C0
:10008000E50300080000000000000000E503000890
:1000900000000000E5030008E5030008E503000890
:1000A00000000000E503000800000000E503000870
:1000B0000000000000000000000000000000000040
:1000C00008B5054B054803331B1A062B03D9044B0F
:1000D000002B00D0984708BD3401002034010020D7
:1000E000000000000648074908B5091A8910CB0F1F
:1000F0005918491003D0044B002B00D0984708BD75
:1001000034010020340100200000000010B5074C2D
:100110002378002B09D1FFF7D3FF054B002B02D02A
:10012000044800E000BF0123237010BD3801002007
:10013000000000009062000808B5094B002B03D0B6
:100140000848094900E000BF08480368002B02D1B5
:10015000FFF7C8FF08BD064B002BF9D09847F7E71B
:1001600000000000906200083C01002030010020E7
:1001700000000000144B002B00D1124B9D46402282
:1001800092029A1A924600218B460F461148124A53
:10019000121A04F083F80D4B002B00D098470C4B3B
:1001A000002B00D098470020002104000D000B48D0
:1001B00000F08DFE03F0CCFF2000290000F084FF4A
:1001C00000F082FE00000800001000200000000087
:1001D000BD10000838010020E4040020193F000889
:1001E00010B5041C064B0360064B4C300360064BF5
:1001F000436003F0B1FB201C03F0E8F9201C10BDA4
:10020000E05D0008005E00085C5E000808B4024B78
:100210009C464C3808BC6047E101000808B4024B1A
:100220009C46503808BC6047E1010008F0B587B033
:100230002D49072201A804F028F82C4E2C49301C27
:100240004C3003F09BFB2B4C2021201C02F0B0FE15
:10025000201C02F0B6FE284D071C2B68642B04D12D
:10026000301C26494C3003F089FB2B6801332B608E
:1002700003AD002F2ED0301C21494C303A1C03F026
:100280007DFB022F0CD0032F14D0012F22D101A807
:1002900004F0ECFB01A9421C201C02F09EFE19E0B8
:1002A000291C201C0A2202F090FE291C154804F08B
:1002B000DDFA0FE00A22291C201C02F086FE1248FB
:1002C000291C04F0D3FA2A78104B002A04D0DA68EB
:1002D0001B681360002301E09A68F9E70022EA54E2
:1002E00001330A2BFAD1B3E710590008700100203E
:1002F000D8580008D801002070020020E9580008F2
:10030000F1580008F858000804590008540100206A
:1003100010B5041CFFF764FF201C00F0FEFD201C3C
:1003200010BD08B4024B9C464C3808BC6047C04620
:100330001103000808B4024B9C46503808BC6047C3
:1003400011030008962313B50E4C9B010093201C4B
:10035000002302210F2202F097FE201C0A490B4ABB
:1003600000F0B0FD0A210922094802F007FE094CFD
:100370001C22201C002103F091FF201C132102F0FD
:10038000AEFD13BD70010020E1010008B0000020A7
:10039000D8010020540100200C4885460C480D4926
:1003A0000D4A002302E0D458C4500433C4188C42D0
:1003B000F9D30A4A0A4C002301E013600432A24236
:1003C000FBD302F0A7FCFFF7D5FEFEE700100020EC
:1003D000B000002034010020C46200083801002071
:1003E000E4040020FEE700000C4B70B51A68D2430D
:1003F00092070ED080220A4C1205C02516686D05A2
:10040000551904322E60A242F7D103221C68224300
:100410001A60044BC0188000016070BD00000140EC
:10042000B0000008100000081FB5052836D804F0F9
:1004300063FE03111D35352980201B4A8002516956
:10044000014351615369034090200093009BC00514
:1004500005B000BD8020144AC002516901435161BA
:10046000536903400193019B1048F1E780200E4A35
:100470000003516901435161536903400293029B98
:100480000B48E5E78020084AC003516901435161E8
:10049000536903400393039B0648D9E7064802F0DB
:1004A000AFFF0020D4E7C04600100240000400481F
:1004B0000008004800140048D859000810B504008E
:1004C000431C04D174220649064802F0F5FD2000C1
:1004D000002100F013FE0F2301201C40A04010BD9E
:1004E000F9590008575A0008F8B504000F00218296
:1004F0004B1C17D00F2608093040FFF795FF050069
:100500003800FFF7DBFF238A074A33409B009B58E4
:100510006561A3612B0010336360283508332060C8
:10052000A360E560F8BDC046AC5B000810B51023C1
:10053000C05E00F053FE10BD10B5836944695B4393
:100540002268002904D103314B439A43226010BD35
:10055000032159438A4313432360F8E7022270B50D
:10056000124D2B681969114206D0D968114203D087
:10057000053A1A6102F03EFD04222B681969114206
:1005800013D0D968114210D0093A094E1A615C6A39
:10059000084A3368E31A934207D901F031F8FA2286
:1005A0002B689200A2189A63346070BDA0040020EA
:1005B00074020020E703000030B587B0694602A846
:1005C00002F068F902F056F90122244B0090D96933
:1005D000234C1143D961D9691140019101991969DD
:1005E000114319611969914319618023DB05236067
:1005F00001235B42E360059B002B2CD1194904F0D9
:1006000085FD00250138606020002561A5606561D9
:10061000A56102F0A5F914490F20FFF7E5FE80223D
:10062000124B12021A602900200002F0E1F90421A5
:10063000200002F0DDF923680D4A596A2800116094
:10064000FA211268890052189A630422D9680A4371
:10065000DA6007B030BD4000D0E7C046001002406D
:10066000A004002040420F005D05000800E100E00A
:1006700074020020044B10B51C68200001F0E3F95F
:10068000200001F0CCFD10BD7802002070B589017A
:10069000002812DB8308134A03249B009B18FF22C7
:1006A0002040A0401400C025844011408140AD008E
:1006B0005E59A6433143595170BD03240F23C0B284
:1006C00003402040A040FC3425002140854081406B
:1006D000083B054A9B089B009B18DA69AA43114313
:1006E000D961E9E700E100E000ED00E0F8B50300C2
:1006F0000025012406000F005C335D571C572800BD
:10070000FFF772FE6C3639002000FFF76DFE367879
:10071000280073425E4101363100FFF7B7FF310018
:100720002000FFF7B3FF002D05DB1F231D401E3BFC
:10073000AB40054A1360002C05DB1F231C401E3B09
:10074000A340014A1360F8BD00E100E010B55D244C
:1007500004575C30007840B200F060FF200000F0E9
:100760005DFF10BD10B5011D5030037804485A429A
:100770005A4152421040034A9B00995010BDC04656
:10078000750600087802002010B50F4B0468416D13
:100790004460186804F0BAFC1423584380231B02F9
:1007A000A2691A4202D001380028F9D1074B9C42B5
:1007B00009D18022064B920319690A431A611A690A
:1007C00004490A401A6110BDB800002000540040DE
:1007D00000100240FFFFDFFFF7B5031D01932A4B16
:1007E00004000D00416D186804F090FC1423802271
:1007F0005843636812029969114202D001380028F7
:10080000F9D1224FBD423AD0214EB5420CD0214BF6
:100810009D4232D0B62220495200204802F04CFCC2
:10082000BD422CD0B5422CD11D4BA360194B9D422B
:1008300008D123681A001B4B9A4203D18020400341
:1008400001F05AFD23681A00164B9A4204D1102376
:10085000154A116B0B4313630021019801F026FD2B
:100860000123236100230198636123626362E360D3
:10087000A36100F08FFF6565F7BD0C4BD5E70C4B0E
:10088000D3E70023A360DDE7B8000020A0860100C5
:10089000801A060040420F006A5A0008C75A000832
:1008A00050189000005400400010024018087000DA
:1008B000895E8010F0B50E002F4F85B0040039001E
:1008C0003000150002F04AFB2C490190280002F08C
:1008D00045FB2300583301001E805D80019802F023
:1008E0001FFB2060431C05D10E222549FF322548FD
:1008F00002F0E2FB244B22689A4212D1230000222C
:10090000802050331A70214A8003D1690143D1619C
:10091000D369172203400393039B23005C331A70AF
:100920005A703900300002F0DFFA1449280002F052
:10093000DBFA0421300000F051FC0421280000F013
:100940004DFC636D002B01D1114B63652000FFF757
:100950001BFF616D2000FFF73FFF220000236C3278
:10096000537013709370083A1370802292042266B9
:10097000A36605B0F0BDC0463C59000818590008F0
:100980006A5A0008FB5A0008005400400010024058
:10099000A0860100021FD36F13B5002B1BD00300EC
:1009A00088331B68002B16D00100703109780029AC
:1009B0000ED0802189041166702104005118126E36
:1009C0008434098800929BB2226800F039FF13BD7D
:1009D00080214904EFE7082360300370F7E708231C
:1009E00060300370704770B50400051DC2602800B8
:1009F00000F0D0FE2000FFF7B5FE01002000FFF759
:100A000075FE280000F0F2FF70BDF8B50700002564
:100A100068373B780400061FAB4200D0856823008E
:100A2000563300229A5E230054330021595E300071
:100A3000FFF740FF002D07D001233B7000232A0061
:100A400019003000FFF7CFFF022360342370F8BD98
:100A5000030010B504306C33002904D001221A7051
:100A600000F0C4FF10BD197000F0D4FFFAE70129AF
:100A700002D16930017070470029FCD101236A302E
:100A80000370F8E7002369300370704700236A3071
:100A90000370704710B500F0A9FF10BD03000022DD
:100AA0006E331B78934200D003326D300378002BF5
:100AB00000D0012210007047802370B55B0406004F
:100AC0001500043092B200F045FF002802D0002546
:100AD000280070BD1E240B4B716D186804F016FBC6
:100AE0006B1C5C43444333006E331B78002B06D0F1
:100AF000013C002CEBD0012002F074FEF3E7002C47
:100B0000E6D1E4E7B8000020802370B55B0406005E
:100B10001500043092B200F0D1FE002802D000256A
:100B2000280070BD1E240B4B716D186804F0EEFA9E
:100B30006B1C5C43444333006D331B78002B06D0A1
:100B4000013C002CEBD0012002F04CFEF3E7002C1E
:100B5000E6D1E4E7B8000020FE21026810B5136872
:100B600004008B4313600438FFF7F0FD0223603468
:100B7000237010BD70B58AB002F0CAFDC8251321DC
:100B800003A802F0ACF996266D000424039A059B95
:100B900030001A60019202F034FE039A069B300086
:100BA0001A60013C019202F02CFE002CEED10434BC
:100BB000039A059B28001A60019202F022FE039A14
:100BC000069B28001A60013C019202F01AFE002CDC
:100BD000EED1DAE770B50D000400A0B002F098FD88
:100BE0002B0022008021684603F096FF051E03DCDF
:100BF00002F0BCFD20B070BD094B0A4E1B68002BF3
:100C000004D10F220221300000F09AFB00246B4631
:100C10003000195D013400F0CFFCA542F7D1E7E7C1
:100C20009C030020080400200FB407B504A901C9E3
:100C30000191FFF7CFFF03B008BC04B0184710B50F
:100C400002F0CAF800F0CCFC02F0BEF802F0C4F8E2
:100C500010BD0000084B10B51B68002B0AD1074CD3
:100C6000022120000F2200F06BFB96212000890159
:100C700000F058FB10BDC0469C0300200804002073
:100C800010B5022801DC002010BD002103380B4AFA
:100C9000830098589950884206D102F057FF0923E3
:100CA000036001204042EFE703685B699847041E38
:100CB000E9DA02F04BFF64420460F2E78C020020A4
:100CC00070B50D00140002280EDC134B1B68002BBE
:100CD00001D1FFF7BFFF2E19B54211D029780F4877
:100CE00000F06AFC0135F7E703380D4B8000C0586F
:100CF000002807D102F02AFF01240923644203607F
:100D0000200070BD0368DB689847041EF8DA02F023
:100D10001DFF63420360F3E79C03002008040020EA
:100D20008C02002010B50C0002280CDC114B1B6853
:100D3000002B01D1FFF78EFF0F4800F02BFC207035
:100D40000124200010BD03380C4B8000C05800283F
:100D500006D102F0FBFE0124092364420360F0E7A0
:100D600003689B689847041EEBDA02F0EFFE6342CB
:100D70000360E6E79C030020080400208C020020AA
:100D800010B50124022809DD03380B4B8000C4583C
:100D9000002C05D102F0DAFE09230360200010BD0B
:100DA00023682000DB699847041EF7DA02F0CEFEC4
:100DB000644204600024F1E78C02002010B5022890
:100DC00007DC02F0C3FE1D230360012464422000FF
:100DD00010BD0338094B8000C058002803D102F031
:100DE000B5FE0923F0E703681B699847041EEEDA95
:100DF00002F0ACFE64420460E7E7C0468C020020CB
:100E000070B50C00022804DC80239B014B6000209D
:100E10000BE003380E4B8000C558002D06D102F0C0
:100E200095FE092303600120404270BD2B68280015
:100E3000DB6998478023002807D11B0263602B6879
:100E400028009B6A98472061E1E79B01F6E7C046CE
:100E50008C02002010B5012000F036F80C4910B5C6
:100E60000B681818EFF30882904205D30C2201207A
:100E7000084B40421A6010BD074A1468002C04D089
:100E8000064A126812199042F0D208601800F2E780
:100E9000B4000020E0040020940300209803002008
:100EA00070B5074C05002368986802F06DFF236851
:100EB000D86802F069FF002D01D0FFF75BFEFEE766
:100EC000200100200120704710B5FFF7E9FF012045
:100ED000704710B5002103F0E3FC10BD30B585B0BC
:100EE000019009203A230D0002AC042201A96844B4
:100EF000237003F0CAF92000290003F05FF8041EF4
:100F000008D001980368DB699847002802D02000C8
:100F1000FFF7DFFF200005B030BD10B503F0A0F9EA
:100F200010BD0000004870478C5B0008030004CB34
:100F300010B50400002A00D1036022689A4204D050
:100F40005D220349034802F0B7F8206810BDC0468F
:100F5000155B0008785B000870B50A4C050020009E
:100F6000FFF7E4FF002380211800074A49009E583C
:100F7000AE4200D1985004338B42F8D12000FFF7E5
:100F8000D5FF70BD8C0300208C020020F0B587B027
:100F900001914349050003F05FFD041E04D1FFF7F2
:100FA00059FE200007B0F0BD3E49280003F054FD73
:100FB000002803D1FFF74EFE0124F2E73A4928004A
:100FC00003F04AFD002803D1FFF744FE0224E8E7BE
:100FD000364F00243800FFF7A9FF354BA600F35821
:100FE0000093002B43D00134402CF6D102F0AEFD2B
:100FF000182303603800FFF799FF0EE0290004A8CA
:1010000002F020FB04A802F078FB051E08D102F0D4
:101010009DFD13230360264BF55001246442C0E775
:1010200004A802F054FB070004A8002F03D002F02C
:1010300058FB03902EE002F03EFB051EE7D003684C
:1010400004A89B68009302F029FB1A4B0199020047
:1010500019400B00280003A9009DA847051E19D0C0
:1010600002F074FD124B6D420560F750D5E7012385
:101070000F4A5B423800B350FFF758FF009B0393C1
:101080002B783A2BBAD1691C042204A803F0FDF88E
:10109000049B0393064B0399A200D150033480E7CD
:1010A0009C5B0008A35B0008945B00088C03002095
:1010B0008C020020FF7FFFFF7047704710B5FFF7DD
:1010C000BEFDFFF7FAFF10BD10B5FFF7F5FFFFF704
:1010D000ADF810BD10B5032449434C435143C368D8
:1010E000A3430B43C36010BD10B5012A02D0022AEE
:1010F00000D00022FFF7EEFF10BD0000F0B585B074
:1011000004000191431C04D13E223049304801F0D3
:10111000D3FF0727019B0F251F4023002B409A0078
:1011200002932C4B2009D6582840FFF77DF9330055
:10113000734300930323009982684B43D9431343BD
:10114000040003918360032F1ED8380003F0D4FFFE
:1011500011110211019B1A12029B2A40072B0AD976
:10116000330A5B435B435D435343616AA9430B43CB
:10117000636239000EE00099236A49434D434A43B4
:10118000AB4313432362F4E710496722124801F08E
:1011900093FF00212268039B1A40009B4B4313439B
:1011A00023607B1E012B05D8019B1B070BD56368B1
:1011B00033436360019B31009A06920F2000FFF7D2
:1011C00093FF05B0F0BD6368B343F2E7EC5B000842
:1011D000575A0008AC5B0008C75F000870B50400F0
:1011E0000E00431C04D188221C491D4801F064FFF5
:1011F0000F2023001B4A03409B009D5824092040D8
:10120000FFF712F92900032369434B4304000068E8
:10121000184003F07BFF0138012805D8F31E022B8C
:101220000AD863682B436360032E08D1012229008A
:101230002000FFF759FF70BD6368AB436360012E68
:10124000F4D0052E01D0022E01D10222EFE70022B8
:1012500029002000FFF73EFFEDE7C046EC5B0008E9
:10126000575A0008AC5B00080FB407B5054B05AA38
:101270001B680549D868019203F050F903B008BC17
:1012800004B0184720010020485C00087023426821
:101290005343054A9B580822D969114200D01A626B
:1012A000D8698006C00F70472C0400207023426864
:1012B0005343034A9B58D8690006C00F7047C04685
:1012C0002C0400207022436810B55A430468144966
:1012D00054505318826819005A60C26852319A609B
:1012E00002690239DA6042691A61C2699A610022B0
:1012F000DA614A804A810A8008310A801A21425EF6
:10130000013205D108225A61180001F0CDFC10BD50
:101310001821425E013201D10422F4E70C22F2E7E7
:101320002C04002010B581600C00FFF7CBFF0028D3
:1013300003D021000148FFF797FF10BD485C00086B
:10134000F0B50E003C4F85B00400390030001500A8
:1013500001F004FE39490190280001F0FFFD010071
:10136000019801F0DDFD2060431C04D1382234498E
:10137000344801F0A1FE01230093022E0DD00F2D61
:101380000BD03900022001F0E9FD00230093019BFE
:10139000834202D12C4802F033F82C4B22689A4247
:1013A00047D180222A4BD201D9682A481143D960FB
:1013B000D9680140D9609969114399619B691340CB
:1013C0000393039B00236360013304D1BE221C49B5
:1013D000214801F071FE3900300001F085FD174908
:1013E000280001F081FD731C03D001213000FFF7BC
:1013F000F5FE6B1C03D001212800FFF7EFFE9623BA
:101400009B01A36000232683E36023616361E361A2
:1014100065832000FFF756FF009B002B07D00122B9
:101420000E4B21001A600E48233202F02EFF05B049
:10143000F0BD01235B42C6E79C59000860590008D3
:10144000725C0008D25C0008EE5C000800380140C5
:1014500000100240FFBFFFFF235D00089C03002037
:1014600008040020024BC018431E984140427047B8
:1014700000C8FEBFF8B51A48FFF7F4FF041E2DDBC5
:10148000184F8600F059002828D070236343164D6A
:101490005A598023D169194206D0D2691A4203D021
:1014A000124B01211B68984770236343EA5820239D
:1014B000D169194207D0D2691A4204D00B4B0021DE
:1014C0001B68B8599847702308225C432B59D96987
:1014D000114203D0D969114200D01A62F8BDC0464A
:1014E00000380140A40300202C040020A0030020A9
:1014F000034B1960436803499B005A507047C0462C
:10150000A0030020A403002070B51D4B0E0001684D
:101510004568994216D11B241A4970231A486B4317
:10152000002A12D0C25820231068002E00D0802339
:10153000034313602000FEF757FF0123A340134A23
:10154000136070BD00210C00E7E7C3581A68002E35
:101550000ED120218A431A601B681B06F1D4012397
:10156000A3400B4AD367BFF34F8FBFF36F8FE8E7FA
:1015700080218A431A601B689B06E2D4EFE7C046CD
:1015800000380140751400082C04002000E100E040
:1015900004E100E070B5040045682000FFF776FE26
:1015A0000028FAD070236B43024A9B58988CC0B233
:1015B00070BDC0462C04002070B505000C004668C4
:1015C0002800FFF773FE0028FAD070237343024A05
:1015D000E4B29B581C8570BD2C04002070470000AD
:1015E0001023064A10B5116803200B431360FEF761
:1015F000E3FFFFF7F3FF002010BDC04600200240CC
:10160000024A1368013313607047C0469C040020EF
:10161000014B18687047C0469C040020002809DB75
:101620001F2318401E3B8340034AD367BFF34F8FED
:10163000BFF36F8F7047C04604E100E070B5841CB3
:10164000E37F022B04D004238363033B180070BDA7
:101650000E210368056C1A688A431A600122196812
:10166000914319601100A940C36B5960E2770024CF
:101670008318426BDC771300A242E7D09047230027
:10168000E4E703689A69920701D500229A62012271
:101690009969114202D199690A439A617047000021
:1016A00030B504680648656889052840039D890DA2
:1016B0002B43194312040A430243626030BDC04603
:1016C000009800FC10B5436B174C0422A34202D0D3
:1016D000164CA34215D10023114200D0B833112279
:1016E0000A40112A01D17F32134312221140914244
:1016F00001D14E3213430268116800200B4313607E
:1017000010BD0023114200D0B833CA0701D5F22220
:1017100013438A0701D5F422134312221140914248
:10172000E9D10E32E6E7C04659210008051F00083E
:1017300010B50023CA0708D5030041331A782823BF
:101740001A401A33282A00D0B0338A0708D502007D
:101750002824413212782240A24217D14422134356
:101760004A0701D5B822134311220A40112A01D198
:101770007F32134312221140914201D14E32134362
:1017800001680A6800209A430A6010BDF422E6E767
:101790007047000070B504000120002C3FD02500E8
:1017A00041352B78DBB2002B05D12200403213707B
:1017B0002000FFF7EDFF242301212B702368E06850
:1017C0001A68A6688A431A6061681A4A0A401A6150
:1017D0009968194A11409960012821D18021090294
:1017E000314399605868154901435960D968002010
:1017F0000A40DA60616922690A43A16909020A4361
:10180000DA60216AE2690A431A60012219680A4310
:101810001A60202360642B7020634234207070BDF6
:1018200084210902314399600228DBD1802109011A
:101830005960D7E7FFFFFFF0FF7FFFFF0080000246
:10184000F7B5050041352E7804000220202E2CD15A
:10185000260040363778012F27D0013830702130EC
:1018600028702000102542300570002062626064FC
:10187000089A63850F4B1340E3620F4B6363638DDC
:10188000FF2B13D9FF23238580235B0490200025A1
:10189000228D8001D2B200902000FFF701FF357049
:1018A00002212000FFF70EFF2800FEBD638D238577
:1018B000E36AEBE7FFFFFFFE2D200008F7B5060007
:1018C000009228220193413633780F000400134020
:1018D0000121934237D1002F35D0009B002B32D00D
:1018E000250004314035FFF723FF2B780221012B1F
:1018F00029D001232B7033782A2B02D12000FFF747
:1019000017FF292333702300202242331A7000234B
:101910002268636451680D48014051606946098836
:1019200067626185618D21850199E1620849616382
:101930009169C90301D50821D16105212B702000CF
:10194000FFF7C0FE00210800FEBDC046FF7FFFFF7D
:10195000351D0008F7B50600009228220193413694
:10196000337804000F0013400120934238D100293E
:1019700036D0009B002B33D02500062120004035B7
:10198000FFF7D6FE2B780220012B29D001212970E8
:101990003378292B02D12000FFF7CAFE2A233370A7
:1019A0002300202242331A700023226863645168A6
:1019B0000C48014051606946098867626185618D04
:1019C00021850199E162084961639169C90301D4E4
:1019D0000821D1612B7006212000FFF773FE002043
:1019E000FEBDC046FF7FFFFF351D0008020010B599
:1019F000413211780223202907D126331370044B7A
:101A00001C394363FFF75EFE0023180010BDC0467B
:101A1000351D0008030070B541331A780224282AC6
:101A20000FD10500197842352A78013421400A4344
:101A300002630024202204211A702C704463FFF7F3
:101A400077FE200070BD036810B599691A68436B72
:101A5000002B00D0984710BD030070B50025202250
:101A6000060042331D70013B1978040040361A709D
:101A700021290AD11123456303632039FFF758FE5A
:101A800035702000FEF786FF70BD122345630363A7
:101A90000221FFF74DFE35702000FEF7A0FFF3E7AF
:101AA000030070B5002542331D70013B1A78040015
:101AB000292A0DD1013A1A70212301210363FFF76E
:101AC00037FE230040331D702000FEF7DBFF70BDA2
:101AD0001A782A2AFBD1023A1A70222302210363C0
:101AE000FFF726FE230040331D702000FEF7CEFFD7
:101AF000EDE70000174B10B5C3620023020003633B
:101B0000040020204132107053700422636311429C
:101B100011D0636A591C61622168496A1970238D6A
:101B2000002B08D0013B2385638D013B9BB263856D
:101B3000636C1A43626407212000FFF7F9FD10224D
:101B400023682000DA612300002240331A70FEF778
:101B5000A1FF10BD0000FFFF704770470200002387
:101B600070B50500423213702F4A4135C262438579
:101B7000436C0400194341642B78282B05D02B7843
:101B8000292B02D02B782A2B22D103212000FFF70A
:101B9000CFFD28232B7000232363244B80222100B8
:101BA00063632368D2011E68403116401A681AD058
:101BB0001F4802401A60A06B1E4B436300230B704A
:101BC000FFF73CFD002802D0A06B436B984770BD27
:101BD0000721FFF7ADFD2B78602B01D020232B7060
:101BE00000232363DAE78020000202400DD01A6848
:101BF000114802401A60E06B0E4B43630E70FFF712
:101C00001DFD0028E3D0E06BDFE72B78602B06D1C9
:101C1000403B2B7020000A70FEF79EFFD7E70A704A
:101C20002000FEF7F2FED2E70000FFFF351D00089E
:101C3000FFBFFFFF79220008FF7FFFFFF8B5040018
:101C400020228027250003680E00DA61183ADA6145
:101C50000721FFF76DFD23683F025A6833493A4375
:101C60005A605A6820000A405A60FFF70AFD21684E
:101C700041350B685B0402D40B683B4207D02B78DC
:101C8000212B34D1A36B1B685B689BB26385638D8A
:101C9000002B03D00423626C1343636404221642B6
:101CA00010D0636A496A581C60621970238D002B3A
:101CB00008D0013B2385638D013B9BB26385636C38
:101CC0001A43626422000023423223631370636369
:101CD000636C002B0DD0616C2000FFF73FFF2B7869
:101CE000282B03D131002000FFF704FFF8BDE36B80
:101CF000C9E72200E06A0E494032884207D0E1621B
:101D00002021200029701370FEF7C4FEEEE7202189
:101D1000287829701370222803D12000FEF7B6FE20
:101D2000E4E72000FEF7AEFEE0E7C04600E800FE74
:101D30000000FFFF0300F0B5403317001A780400DD
:101D400085B00D000220012A26D001221A700F3220
:101D5000114240D017423ED0638D002B34D18023F6
:101D6000E26A9B049A4202D0E26A9A4216D12300A8
:101D700041331B78282B11D129002000FFF7BAFE30
:101D800020231D4205D01F4203D029002000FFF769
:101D900055FF00204034207005B0F0BDE16A584A7C
:101DA000236891420DD0220041321278292A08D1AD
:101DB000193ADA612000FFF764FC2000FFF770FE9B
:101DC000DEE71022DA61DBE72368DA610423626C64
:101DD00013436364D4E70422154219D0174217D085
:101DE000638D002B0CD0636A5A1C62622268526AAF
:101DF0001A70238D013B2385638D013B9BB2638564
:101E0000638D002BBCD1E26A3D4B9A42D5D1B7E736
:101E10000820054250D007424ED0220028214132EE
:101E200012780A402168282A42D18E698B69D632FD
:101E30001B0C1A4001928A68CB68F60303932300B7
:101E400040330093E368F60F022B28D19205930DDF
:101E5000019A0293DB095A4013000622134013D162
:101E6000A26C9446012294446246A264A26C022AA7
:101E700000D085E7009AA364C8611370029A31000C
:101E80002000FEF7F4FD7BE704212000FFF750FC63
:101E90000023009A1370039AFE331A40EFE70421DF
:101EA0002000FFF745FC0023009A1370019AE6E733
:101EB0000022C8611A7063E702231D4200D15FE768
:101EC0001F4200D15CE7638D002B0DD0636A22684E
:101ED000591C61621B789362638D013B9BB26385E1
:101EE000238D013B23854BE78023E26A5B049A4202
:101EF00000D162E7E36A002B00D15EE740E7C0460D
:101F00000000FFFF70B50400403425780223012D46
:101F100018D0013B23700F3319421CD01A421AD03B
:101F2000030041331B78212B0ED1836B1B681021DA
:101F30005B685A4253410268DBB2D161002B05D085
:101F400000232370180070BDC36BEFE70423426CBD
:101F500013434364F4E70823194204D01A4202D021
:101F60000268D361ECE720231942E9D01A42E7D096
:101F7000FFF764FEE4E700002022036810B5DA6191
:101F80005A680400274802405A60002222636263B4
:101F9000254AE2621022114204D0DA610423626C05
:101FA000134363642000FFF76CFB03212000FFF75D
:101FB000BFFB636C002B04D12200413211786029F1
:101FC00004D1616C2000FFF7C9FD10BD11782129F3
:101FD00012D10139117022002100423210784031B3
:101FE00013700B70402803D12000FFF7B5FDECE71C
:101FF0002000FEF7CFFCE8E711782229E5D102396D
:1020000011702200210042321078403113700B70A1
:10201000402803D12000FFF7A0FDD6E72000FEF7FF
:10202000DEFCD2E700E800FE0000FFFFF7B5070086
:1020300040373B7804000D0016000220012B1AD017
:1020400001233B700F33194216D01A4214D0226874
:102050002000D361626C0C3B13436364FFF711FBF8
:1020600020231D4205D01E4203D029002000FFF787
:1020700083FF00203870FEBD04231D420FD01E4296
:102080000DD0636A5A1C62622268526A1A70238DEC
:10209000013B2385638D013B9BB26385E0E702230F
:1020A0001D4208D01E4206D0636A2268591C616234
:1020B0001B789362EBE740232A0633D51E4231D0CA
:1020C000208D2368002821D1628D002A1ED05968F6
:1020D000638D8905890DFF2B08D9FF228023228576
:1020E00000905B042000FFF7DBFAB9E7628DE36A3A
:1020F00092B29C46174B2285D2B29C4502D0E36A2D
:102100000090EFE7802300909B04EBE75B689B0166
:1021100003D42000FFF7A0FCA2E740212000FFF736
:102120001DFD9DE71D429BD01E4200D198E7638DA7
:10213000002BF2D123685A68920100D590E7E16A3A
:10214000044A9142E5D180225968D2010A435A607B
:1021500086E7C0460000FFFF37B5050040352B7805
:1021600004000220012B15D001232B700F331942DC
:1021700011D01A420FD022681221D361626C0C3B3D
:10218000134363642000FFF79DFA2000FFF779FAFC
:10219000002028703EBD0B0638D540231A4235D0AA
:1021A0002268116899431160618D002929D0516816
:1021B000638D8905890DFF2B1BD9FF232385802380
:1021C0005B040020228D0090D2B22000FFF768FA55
:1021D000638D228D9B1A9BB26385230041331A784D
:1021E00023681968222A09D1802212020A431A6040
:1021F000CEE7638D238580239B04E2E78022D20112
:10220000F4E719002000FFF7A9FCC1E720231942D9
:10221000BED01A42BCD02000FFF7AEFEB8E770B5C2
:10222000802503686D0099691A68294206D0140652
:1022300004D50124466C34434464DD618025ED00FF
:10224000294206D0140604D50824466C344344645D
:10225000DD618024A400214206D0120604D50222AA
:10226000416C0A434264DC610B23426C1A4202D087
:10227000416CFFF773FC70BD8023406A1B0202684B
:1022800010B551680B4353600023826B5363C26BDC
:102290005363030041331A78602A04D1403A1A701C
:1022A000FEF75AFC10BDFEF7B0FBFBE7F0B50400EB
:1022B000413422780300D2B20220202A18D11D0016
:1022C00040352E78012E13D01B68223020701E68F6
:1022D000233886431E601E68064F3E401E601E68FF
:1022E0003143196019680843186000202270287073
:1022F000F0BDC046FFEFFFFF13B50124064A916908
:10230000214391619369054A23400193019B13681E
:102310001843106013BDC046001002400000014089
:10232000F0B5036885B00500DB072FD42B689B0749
:1023300000D581E02B681B0700D5BCE02B685B074C
:1023400000D5DFE02B68DB061AD56A69B54C04239B
:10235000012A00D04BE1616B02260B436363636B80
:102360001A436263FFF754F90700636B334200D1ED
:1023700036E1F821626BAB698A43DB001343636388
:10238000296A002900D059E1002013E00C21A54C56
:1023900062680A40042A06D063680B40082B0BD100
:1023A0006368DB0308D523689B03BFD56B68002BEC
:1023B000BCD1012005B0F0BD6B68012B13D1802387
:1023C00022685B0213432360FFF722F9802607008F
:1023D000B60223683342A9D1FFF71AF9C01B64285B
:1023E000F7D90320E6E7002B16D123688E4A802612
:1023F0001340236023688D4AB60213402360FFF721
:1024000007F907002368334200D18FE7FFF700F98F
:10241000C01B6428F6D9E4E7052B05D18023226888
:10242000DB0213432360CAE723687F4A134023601B
:1024300023687E4A1340C6E70C227A4C6368134235
:1024400006D063681340082B10D16368DB030DD4FA
:1024500023689B0702D5EB68012BAAD1F8212268DB
:102460002B698A43DB001343236063E7EA68012397
:10247000002A0FD02268022613432360FFF7C8F812
:10248000070023683342E9D1FFF7C2F8C01B0228D6
:10249000F7D9A6E7226802269A432260FFF7B8F828
:1024A00007002368334200D144E7FFF7B1F8C01BAF
:1024B0000228F6D995E7EA6901235A4C002A10D080
:1024C000626A022613436362FFF7A2F80700636A99
:1024D000334200D032E7FFF79BF8C01B0228F6D941
:1024E0007FE7626A02269A436262FFF791F807006B
:1024F000636A334200D121E7FFF78AF8C01B022844
:10250000F6D96EE780220021464C5205E36900911E
:10251000134208D1E3691343E361E3691340039372
:10252000039B012300938027414E7F0033683B4289
:1025300006D0AB68012B13D1226A1343236230E02B
:1025400033683B433360FFF763F8019033683B42E5
:10255000EFD1FFF75DF8019BC01A6428F6D940E778
:102560000122002B14D1236A022793432362236A9A
:10257000033293432362FFF74BF80600236A3B4282
:1025800025D0FFF745F82B4B801B9842F6D928E75A
:10259000052B0BD1216A013B0B432362236A1A43AB
:1025A0002262FFF735F8022706000DE0236A934305
:1025B00004222362236A9343C0E7FFF729F81D4BE7
:1025C000801B984200D90CE7236A3B42F5D0009B60
:1025D000012B00D0B6E6E369174A1340E361B1E688
:1025E000FFF716F8C01B022800D8BEE6F9E6053250
:1025F00003D1626B9A436263BBE6626B02261343AC
:1026000001226363636B93436363FFF701F8070081
:10261000636B334200D1B3E6FEF7FAFFC01B02281A
:10262000F6D9DEE600100240FFFFFEFFFFFFFBFFD2
:102630000070004088130000FFFFFFEF0C22264CC3
:10264000012063681340082B00D1B3E62368234AB6
:102650001340236002292FD1FEF7DAFF80260700FE
:10266000B6042368334221D10F22E36A9343EA6A16
:102670001343E362696AAB6A62680B4318498025B9
:102680000A4013436360802322685B041343236082
:10269000FEF7BEFF0600AD0423682B4200D073E6B0
:1026A000FEF7B6FF801B0228F6D99AE6FEF7B0FFC8
:1026B000C01B0228D5D994E6FEF7AAFF80250600A4
:1026C000AD0423682B4200D15EE6FEF7A1FF801B1C
:1026D0000228F6D985E6C04600100240FFFFFFFE43
:1026E000FFFFC2FF70B5144C88B01022210068466D
:1026F00001F0CBFD210004AD10221031280001F0C3
:10270000C4FD0C220D4E73681A40082A11D10F2007
:102710006A46990C0140545CF26A0240A95CDB03F2
:1027200005D5074802F0F2FC604308B070BD0548CB
:10273000FAE70348F9E7C046355D0008001002409B
:1027400000127A0000093D00F7B50122434C060053
:1027500023680F0013408B421CD33268930723D4A5
:10276000D30729D4012322681A40974267D33368DC
:102770003B4C5B076AD4FFF7B5FF6368394A1B0619
:102780001B0FD35CD840384B18600320FDF714FFB3
:10279000002008E0236893430B4323602368134021
:1027A0009942DAD00120FEBDF0202D494B688343C9
:1027B000B06803434B60D3E7294D72682B68012A48
:1027C0001AD19B03EED503216B688B4313436B60D7
:1027D000FEF71EFF73680190012B15D10C226B6868
:1027E0001340042BBED0FEF713FF019BC01A1F4BF2
:1027F0009842F3D90320D6E7022A02D19B01E2D402
:10280000D0E79B07DFD4CDE7022B12D00C226B68F8
:102810001342A7D0FEF7FCFE019BC01A134B98424F
:10282000F4D9E7E7FEF7F4FE019BC01A0F4B98427C
:10283000E0D80C226B681340082BF3D192E7226892
:102840009A43226022681A42ACD190E76368084A32
:102850001340F268134363608DE7C04600200240D6
:1028600000100240595D0008B800002088130000E5
:10287000FFF8FFFF044B054A5B685B055B0FD35C09
:10288000034A1068D840704700100240695D000894
:10289000B8000020072310B503240360094B5A68D1
:1028A000224042605A68ED3422408260E0225B6838
:1028B000D20013400122C360034B1B6813400B601E
:1028C00010BDC046001002400020024070470000CA
:1028D0001D4A10B50368904206D08024E405A0424A
:1028E00002D01A4CA0420CD17024A3434C6823435D
:1028F00090420FD08024E405A0420BD0134CA0429C
:1029000008D0134CA04205D0124CA04202D0124C69
:10291000A04203D1114C2340CC6823438024A3431D
:102920004C69234303608B68C3620B6883629042E7
:1029300005D0084B984202D0074B984201D10B6951
:1029400003630123436110BD002C014000040040DB
:10295000002000400044014000480140FFFCFFFF10
:1029600070B504000120002C14D025003D352B78D3
:10297000DBB2002B05D122003C3213702000FFF7A0
:10298000A5FF022320682B70211DFFF7A1FF012363
:1029900000202B7070BD10B501248C408A40036A62
:1029A000A3430362036A1A43026210BD10B5040018
:1029B00001220068FFF7EFFF23680A4A934205D01F
:1029C000094A934202D0094A934204D18022596CA9
:1029D00012020A435A640122196800200A431A604D
:1029E00010BDC046002C0140004401400048014099
:1029F00010B5FFF7DBFF10BD7047000070B5040095
:102A00000568C269836800692968034360690343F4
:102A10003548134301400B432B606B683349206AF0
:102A20000B40E1680B436B60A369A968034330481E
:102A300001400B430321AB602E4B1B6B0B402E4917
:102A4000C85C80231B029A422CD1082827D802F0A8
:102A500053FB05260B261E2626262100FFF70AFF1C
:102A6000636840005B0802E063685808234BC018A5
:102A7000616802F04BFB83B200200F2219009143E2
:102A80000A001B0721685B0F1343CB6070BDFFF783
:102A900029FEE5E76368580880235B02E7E7012029
:102AA0000023EAE708281DD802F026FB051C0A1CB3
:102AB000141C1C1C1700FFF7DDFE61684B0802E0C8
:102AC00061680F4B4808C01802F020FB80B2E86034
:102AD0000020DBE7FFF706FEEFE7802361681B02BB
:102AE0004808F0E70120D1E7F369FFFFFFCFFFFFC0
:102AF000FFF4FFFF00100240555D00080024F400C1
:102B000000127A00436A30B5DA0706D50168284C0E
:102B10004A682240846A22434A609A0706D50168BF
:102B2000244C4A682240C46A22434A605A0706D5A8
:102B30000168214C4A682240046B22434A601A070C
:102B400006D501681D4C4A682240446B22434A6006
:102B5000DA0606D501681A4C8A682240846B224343
:102B60008A609A0606D50168164C8A682240C46BB2
:102B700022438A605A0610D50168134D4A68046CD6
:102B80002A4022434A6080225203944205D14A6877
:102B90000E4C2240446C22434A601B0606D5026854
:102BA0000B4953680B40816C0B43536030BDC046EA
:102BB000FFFFFDFFFFFFFEFFFFFFFBFFFF7FFFFFAC
:102BC000FFEFFFFFFFDFFFFFFFFFEFFFFFFF9FFFB5
:102BD000FFFFF7FFF8B504000E0015001F00226884
:102BE000D36933409B1B59424B41AB4201D000207B
:102BF00018E0069B0133F3D0069B002B13D123680A
:102C00000C491A6803200A401A609A68A331FF3100
:102C10008A439A6022002023693213705370002384
:102C200068342370F8BDFEF7F3FC069BC01B83429B
:102C3000D5D2E4E75FFEFFFF73B500260400C66649
:102C4000FEF7E6FC164A23680500934208D02200EE
:102C5000202300206932683413705370207076BDD1
:102C60001B681B070FD423681B685B07EFD5802107
:102C70000C4B00220093C9032B002000FFF7AAFF92
:102C800000280BD1E3E78021064B32000093890333
:102C900003002000FFF79EFF0028E4D00320DEE7BA
:102CA00000380140FFFFFF0170B5041E01D1012073
:102CB00070BD050069352B78DBB2002B04D1020012
:102CC00068321370FFF798FE2423012122682B70CD
:102CD000136820008B431360FFF790FE0128E6D0B5
:102CE000636A002B02D02000FFF70CFF236808491D
:102CF0005A6820000A402A215A609A688A439A60DA
:102D0000012219680A431A60FFF796FFD0E7C04610
:102D1000FFB7FFFF0122124B1248196811431960D7
:102D200059680140596019680F48014019601968D5
:102D30000E480140196059680D4801400F20596044
:102D4000D96A8143D962196B0A4801401963596BEA
:102D5000914359630021996099690A439A617047C8
:102D6000001002400CB8FF08FFFFF6FEFFFFFBFF5C
:102D7000FFFFC0FFECFEFFFF102370B590B008937B
:102D80000A93A0230024022501269B0304A804958E
:102D900005940694079609940B940C950D940F9442
:102DA0000E93FFF7BDFAA0420BD10723310068460E
:102DB0000294039400930195FFF7C6FC44424441FA
:102DC000E4B2200010B070BD10B5FFF7D5FF0028A9
:102DD00000D1FEE710BD00000C2270B5124D134E5D
:102DE0006B681340042B01D0082B0AD0104B3360C2
:102DF0006B68104A1B061B0FD35C3268DA403260E6
:102E000070BD0F236C686A68A40C1C400234E96A28
:102E1000D20307D519400131054802F077F9444340
:102E20003460E5E70448FAE700100240B8000020EB
:102E300000127A00595D000800093D0070478023A8
:102E4000DB05586A704700000222054B1B68D968F1
:102E50009143D9605863D9680A43DA607047C04625
:102E6000A0040020034B1A68022351690B435361ED
:102E70007047C046A00400200221034B1A68D368A3
:102E80008B43D3607047C046A00400200322024B4E
:102E900052421B681A617047A004002070B5036895
:102EA00004000D00002A0AD082681360200001216E
:102EB000FDF742FB29002000FDF738FB70BDC2681A
:102EC000F3E770B50D0004001600FDF70DFB6B1C59
:102ED00004D0320000212000FFF7E0FF70BD10B5E4
:102EE0000022FFF7EEFF10BD10B50400431C0CD10B
:102EF00010BD9C4208D120008968FEF7FFF8002130
:102F00002000FEF76BF9F3E70C3100228B5E5A1CB0
:102F1000EFD1024800F074FAEAE7C046A25D00086B
:102F200010B5884208D0431C06D04B1C06D004487C
:102F300000F066FA01214942080010BD0100FBE7DC
:102F4000715D000800228B5E5A1C01D1180002E05E
:102F5000834201D1486870470C31F3E710B5040093
:102F6000431C07D0FFF7EEFF0400431C02D10248C8
:102F700000F046FA200010BD825D000870B5040024
:102F80000D0016000021982201F088F93200290076
:102F90002000FDF78FFC20000449FDF71DFC2000F8
:102FA0000121FDF755FD200070BDC046A08601003F
:102FB0000023012210B5C9B20A431900FDF713FD21
:102FC00010BD10B5FDF76AFD10BD10B51400FDF77A
:102FD00073FD201A441EA04110BD10B51400FDF76A
:102FE00093FD201A441EA04110BD00000048704708
:102FF000B45D0008034B10B51B68002B01D00248DC
:10300000984710BDBC000020B45D000810B50368EF
:103010001B69984710BD10B503689B69984710BDA0
:1030200010B503689B6A984710BD01204042704765
:10303000112070477047704708B4024B9C464C38CB
:1030400008BC60473730000808B4024B9C464C3837
:1030500008BC60473730000810B500F005FA10BD15
:1030600008B4024B9C464C3808BC604759300008F5
:1030700010B500F0FEF910BD08B4024B9C464C3868
:1030800008BC60477130000870B504001D00049B47
:1030900000F014FA200029004C3000F033FC054BFE
:1030A00020001A00083222601A0084332832E264B9
:1030B000236570BDD85D000870B50D0016000400D2
:1030C00000F026FB33002A0021000348FDF7ACFD89
:1030D000FDF750FD70BDC046645E0008F0B5050008
:1030E000036885B05B68446898476B681B6A9842C0
:1030F0002CD0236AE268C31A1A40A5682D4B16002B
:10310000002720629D421BD080232A4A1B029D4239
:1031100028D100233000390002F0B6F84B04C60B6A
:103120001E4300234004420CCF0BA06AE16A121830
:103130004B41002B0CD120498A4209D8A262E3629C
:10314000226B636BB6185F412663676305B0F0BD01
:103150000120002136184F41012118484942121818
:103160004B41EBE700233000390002F08DF8019766
:103170000095009A019B0290039102F065F8009A75
:10318000019B06000F000298039902F05DF8A06A07
:10319000E16A12184B410199994202D1009991427A
:1031A000CCD80120002136184F4100980199121AFD
:1031B0008B41C3E740420F00FF7F00000080FFFF0C
:1031C0000300824206D901208A4202D999428041F5
:1031D0004042704700208B42FBD991424041F8E7C2
:1031E000F7B506004568FFF779FF746837686368CC
:1031F000002B4CD0206B616B1A685B688B4205D842
:1032000001D1824202D87B699847F7BD121A8B41DF
:1032100021690191E16999420BD302D1A1699142DF
:1032200007D3A0681E4988421CD10199914200D958
:103230000192226A019B9446E46863441C402B6A15
:10324000A342E0D03B692000984733685B68984709
:1032500022000100286AFFF7B3FF0028D5D03368A9
:103260005B69D1E78021090288420CD1500CD90357
:103270000143D00300230A4A01F0E6FF019B834289
:10328000D7D90190D5E7002101F0FEFFF2E72B6AC4
:103290002A69E8689B1818403B699847B5E7C0461B
:1032A00040420F00F0B50500036887B01B689847DF
:1032B0002B689B69984707680400002F05D12922D5
:1032C0002C492D48FFF7F8FE2C4F6668331F1C2B46
:1032D00005D92F2227492848FFF7EEFE202607228E
:1032E000331F9A400023039201930398D1170023C0
:1032F000224A009701F0C8FF009B019C04900591B1
:1033000001204042C117C0186141049B059CC018B0
:103310006141009A019B01F097FF00236C680090C7
:103320000191236063602B685B689847002300224B
:1033300020626C680120A262E362A7603200002173
:1033400001F076FF039B01382361009A019BA26183
:10335000E36100220023226363630123E0603834C9
:1033600023702800FFF7BAFE2800FFF739FF07B0E7
:10337000F0BDC046955E0008C75F000840420F00E0
:1033800010B5040000F0C4F92368DB68984763684F
:103390005B68002B15D02000FFF7A0FE63685A6819
:1033A000596B506888420CD803D11168186B814260
:1033B00007D8D16859601B68002BE8D090689847FF
:1033C000E5E72000FFF70CFF00F0D0F910BD10B5C5
:1033D0004368040038331B78002B01D1FFF762FFEC
:1033E00000F096F92000FFF779FE00F0BFF963685E
:1033F000186B596B10BD10B5FFF7E9FF10BD000049
:103400000FB413B5084B1A78002A09D1012405A975
:1034100004981C700191FDF7DDFB2000FDF754FDC1
:1034200013BC08BC04B01847E8030020704770477D
:1034300070B50C01250028354519EB68002B0DD01F
:103440000419636B002B05D18422054992000548BD
:10345000FFF732FE636B28001B68984770BDC046BB
:10346000EB5E00084A5F000810B50430FEF792F8E2
:1034700010BD10B50C000430FEF79EF8200010BD02
:10348000C36810B50400002B01D09B68984720004A
:1034900010BD70B504000D0088420CD0FFF7F0FF9E
:1034A000002C08D0EB68002B03D05B6829002000BB
:1034B0009847EB68E360200070BD0000F0B50400A1
:1034C00005002700260089B00393204B01910833A3
:1034D00008C50292283724220021280000F0DEFED1
:1034E000383610220021380000F0D8FE10220021CA
:1034F000300000F0D3FE039B1022A364002104A837
:1035000000F0CCFE04A93800FFF7C3FF04A8FFF7C2
:10351000B7FF1022002104A800F0C0FE04A930006B
:10352000FFF7B7FF04A8FFF7ABFF029A0199280045
:10353000FDF706FFA16C2800FDF7F4FE280022002D
:103540000349FDF7D5FF200009B0F0BD505F00082A
:1035500031340008F0B505000F001600036887B08D
:103560001B68984700F0D4F82B1D34010193FB68C9
:1035700028342C19002B15D0E368002B01D100F062
:1035800019FA39002000FFF784FF01223100281DBD
:10359000FDF7BAFF00F0EAF82B6828005B6898474F
:1035A00007B0F0BDE368002B01D000F01DFA102237
:1035B000002102A800F072FE02A92000FFF769FFB7
:1035C00002A8FFF75DFF0022E0E700007FB50400DE
:1035D0002600164B1022083303600021684600F0D5
:1035E0005DFE002269462000FFF7B4FF6846FFF742
:1035F00047FF10220021684600F050FE0122694674
:103600002000FFF7A7FF28366846FFF739FF002E96
:1036100008D025004835B54204D0103D2800FFF7FA
:103620002FFFF8E7200004B070BDC046505F0008CF
:1036300010B50400FFF7CAFF2000FDF76EFC200064
:1036400010BD000070B50E00002504000560456047
:103650000F49300001F025FA3618266023681A78E1
:103660002F2A0FD101332360002D04D128220949CC
:103670000948FFF721FD2900300000F025FA6060BD
:10368000200070BD002AEFD0013301352360E5E74B
:10369000685F00086A5F0008C05F00080068704744
:1036A000436810B5181E05D000F0B6F90138434242
:1036B0005841C0B210BD10B50400FFF7F1FF031E62
:1036C00003D06268131E00D0131F180010BD43689A
:1036D00010B5181E04D000F09FF943425841C0B203
:1036E00010BD10B50400FFF7F2FF031E03D062689F
:1036F000131E00D0131F180010BD4068431E9841D0
:10370000C0B27047EFF31083012098437047000068
:1037100070B5FFF7F7FF050072B60F4C2368002B5A
:1037200004D1013343400D4ADBB2137023680133E7
:1037300004D143220A490B48FFF7BEFC2368002B43
:1037400006D0002D04D0472205490748FFF7B4FCF6
:1037500023680133236070BDEC030020E9030020DF
:10376000C95F0008226000084860000810B50C4CD2
:103770002368002B13D0FFF7C5FF002804D0582280
:1037800008490948FFF798FC2368013B2360236838
:10379000002B04D1054B1B78002B00D162B610BD65
:1037A000EC030020C95F000848600008E90300201E
:1037B00070B505000C00FFF7ABFF2B88E418A4B22E
:1037C0002C80FFF7D3FF200070BD70B505000E0000
:1037D000FFF79EFF2C88A41BA4B22C80FFF7C6FF26
:1037E000200070BD70B50500FFF700FC0400FFF776
:1037F00002FE06002000FFF7FEFD801BA842F9D361
:1038000070BDFA2310B59B005843FFF7EBFF10BDC6
:10381000002070470020704710B5036801221B6923
:103820000021984710BD002210B5036811001B69E4
:10383000984710BD70477047F8B50E000368050043
:10384000DB6C8C1898473300A34208D05F1C1978B2
:103850002B6828005B6C9847431C06D13C002B6802
:1038600028001B6D9847A01BF8BD3B00ECE7F8B59E
:103870000E0003680500DB6C8F1834009847A742E0
:1038800008D02B6828009B6C9847431C02D02070FE
:103890000134F4E72B6828001B6D9847A01BF8BD86
:1038A00000207047704700207047002070470000DC
:1038B00010B50400044B0360044B0430036000F0B7
:1038C000CFF8200010BDC04664600008B06000085A
:1038D00008B4024B9C46043808BC6047B138000865
:1038E00010B50400FFF7E4FF2000FDF716FB2000F1
:1038F00010BD08B4024B9C46043808BC6047C04663
:10390000E138000810B504000F4B002208C000F099
:1039100085F80E4B0E491A006433636000230832A9
:1039200022606361200000F00CF96061002803D080
:10393000FDF7CFFA200010BD00F008F90168054836
:10394000FFF75EFDF6E7C046B4610008DC600008E2
:10395000B8600008BB600008074B10B51A000400EF
:103960000832643302604360406900F04DF9200082
:10397000FFF79EFF200010BDDC6000080EB477B595
:103980000400036807AD40CDDB6C98476069019582
:1039900000F0FAF93100019A606900F0BFFD0500FE
:1039A000236820001B6D984728007EBC08BC03B02C
:1039B0001847000010B5FFF7ABFE084C084B2288F3
:1039C0009A4204D1FFF7D2FE0648FFF719FD012104
:1039D0002000FFF7EDFEFFF7C9FE10BDF003002049
:1039E000FFFF00004861000810B5FFF791FE084C8A
:1039F0002388002B04D1FFF7B9FE0648FFF700FD2E
:103A000001212000FFF7E1FEFFF7B0FE10BDC04628
:103A1000F003002075610008007B70470D4B70B506
:103A200008330360040000230B4E4360A16002735F
:103A300030000D00FDF77AFA002D08D0074B1A6808
:103A40001C6062603000FDF771FA200070BD656097
:103A5000F8E7C0469C610008F8030020F40300204A
:103A600070B50400104B114D083303602800FDF7BA
:103A70005DFAA368002B05D00D4A13689C420DD156
:103A8000636813602800FDF751FA237B002B02D1F5
:103A9000201FFDF761FA200070BD13005A689442A0
:103AA000FBD162685A60EDE79C610008F8030020D2
:103AB000F403002010B50400FFF7D2FF2000FDF74B
:103AC0002CFA200010BD0000F8B50F4D07002800AB
:103AD0000E00FDF72BFA0D4B1C68002C0DD0A068D2
:103AE00000280FD03200390000F0C7FF002809D1AC
:103AF000A06800F0BBFF864204D12800FDF716FA4B
:103B00002000F8BD6468E8E7F8030020F403002013
:103B1000036870B51B690122002104009847051E47
:103B20000DDB236802221B69002120009847060054
:103B3000236829001B6900222000984735002800CF
:103B400070BD10B5FDF7CAF910BD0000014B186833
:103B50007047C0462001002070B5051C0C1E01D125
:103B6000002049E0002804D08369002B01D100F037
:103B700061F9224B9C4201D16C6808E0204B9C42C9
:103B800001D1AC6803E01F4B9C4200D1EC680C22D1
:103B9000A35E002BE4D0281C211C00F03FF8236B0F
:103BA000061C002B06D0281C216A9847002801DA41
:103BB00001267642A3891B0603D5281C216901F042
:103BC00099FD616B002908D0231C4433994202D02F
:103BD000281C01F08FFD00236363A16C002904D031
:103BE000281C01F087FD0023A36400F093F9002353
:103BF000A38100F090F9301C70BDC046F861000848
:103C0000186200083862000808B5034B011C1868E8
:103C1000FFF7A2FF08BDC04620010020F7B58A8942
:103C2000051C0C1C13075ED44B68002B02DC0B6CCC
:103C3000002B1ADDE76A002F17D000232E682B60B7
:103C400080235B011A4001D0626D15E0281C216AB7
:103C50000123B847021C431C0ED12B68002B0BD04C
:103C60001D2B01D0162B02D12E6000205EE04021DA
:103C7000A3890B43A38159E0A3895B0706D5636839
:103C8000D21A636B002B01D0236CD21A0023281C9C
:103C9000216AE76AB847A389421C06D12A68002A2C
:103CA00003D01D2A01D0162A19D100226260226990
:103CB0002260DB0405D5431C02D12B68002B00D108
:103CC0006065616B2E600029CFD0231C443399427C
:103CD00002D0281C01F00EFD0020606326E0402287
:103CE0001343A38122E00F69002FBED00B680F6041
:103CF000DB1B01930023920700D14B69A360019B5A
:103D0000002BB2DD281C216A3A1C019BA66AB04731
:103D1000002806DC40220120A38940421343A381EE
:103D200004E0019B3F181B1A0193E8E7FEBD000069
:103D300038B50B69051C0C1C002B01D100201CE0C0
:103D4000002804D08369002B01D100F073F80B4BDD
:103D50009C4201D16C6808E0094B9C4201D1AC68DF
:103D600003E0084B9C4200D1EC680C22A35E002BC0
:103D7000E4D0281C211CFFF751FF38BDF861000872
:103D8000186200083862000808B5011E05D1054B0D
:103D90000549186800F0BAF903E0044B1868FFF70A
:103DA000C7FF08BD58620008313D0008200100200F
:103DB00008B5024900F0AAF908BDC046313D000827
:103DC000002310B5041C0360436083608181436657
:103DD000C281036143618361191C08225C3000F0D9
:103DE0005DFA054B24626362044BA362044BE362F9
:103DF000044B236310BDC046C1490008E9490008CF
:103E0000214A00084D4A000870B568254B1E5D43E5
:103E10000E1C291C743101F065FC041E08D0002121
:103E20002A1C016046600C30A060683200F036FA4F
:103E3000201C70BD836913B5002B28D18364C36433
:103E40000365134B134A1B6882620193984201D1A8
:103E500001238361041C00F01FF86060201C00F047
:103E60001BF8A060201C00F017F80421E06000227D
:103E70006068FFF7A5FFA06809210122FFF7A0FFF6
:103E8000E06812210222FFF79BFF0123A36113BD0B
:103E900058620008B13D0008F8B51D4B061C1D68AE
:103EA000AB69002B02D1281CFFF7C4FF4835AC6872
:103EB0006B68013B05D40C22A75E002F10D068343C
:103EC000F7E72B68002B06D1301C0421FFF79CFF7D
:103ED0002860002801D02D68E9E70C23336016E044
:103EE0000123201C5B42E3810233A38167662760C4
:103EF000A760676027616761A7615C30391C082291
:103F000000F0CCF9201C6763A763A764E764F8BDE1
:103F1000586200087047704738B5074B074C1D1CA6
:103F2000E41AA410002C04D0013CA300EB589847DD
:103F3000F8E701F0CBFC38BD2C0100203001002057
:103F4000F7B50F1C111C01AA051C00F0E7FE061EA8
:103F500001D1002427E0281CFFF79EFF041EF8D0A3
:103F6000DB23281C391C019A5B0000F06BFC002845
:103F700006DA0025FFF7CEFFA581FFF7CCFFE8E7C3
:103F80000A4BE08163620A4BA681A362094B24625B
:103F9000E362094B2363F30505D5281C211C00228D
:103FA000022300F017F8201CFEBDC046C1490008DE
:103FB000E9490008214A00084D4A000808B5031CD9
:103FC0000A1C03490868191CFFF7BAFF08BDC04660
:103FD0002001002008B500F001F808BDF7B5051C68
:103FE0000C1C01921E1C002804D08369002B01D1F7
:103FF000FFF720FF414B9C4201D16C6808E0404B29
:104000009C4201D1AC6803E03E4B9C4200D1EC687D
:104010008422A38952001340934203D1281C211CFF
:10402000FFF786FEE36A0093002B01D11D3331E0D8
:10403000012E05D0022E31D01623002E2AD12DE0DC
:10404000281C211CFFF774FE8023A2895B011A4003
:1040500001D0606D06E0331C281C216A009EB04729
:10406000431C18D0A3895A0707D56368C01A636B2D
:10407000002B0AD0236CC01A07E01B0705D5236864
:10408000002B02D022699B1AC018019B00261B1826
:10409000019303E02B6001277F422DE02369002B71
:1040A00003D1281C211C00F079F8281C211CFFF7E3
:1040B0003FFE071EEFD1331C281C216A019A009E87
:1040C000B047431CE7D0616B002908D0231C443360
:1040D000994202D0281C01F00DFB002363630021EC
:1040E000201C2369A2892360074B61601340A381D0
:1040F0005C30082200F0D2F8381CFEBDF8610008E0
:104100001862000838620008DFF7FFFFF7B5041CEB
:10411000071C002601914834002C16D06368A5685E
:104120000093009B013B00930DD4AB89012B08D970
:104130000E22AB5E013304D0381C291C019B98472A
:1041400006436835EDE72468E6E7301CFEBD000055
:104150000E4B70B500251E1C0D4CE41AA410A54290
:1041600004D0AB00F35898470135F8E701F0A8FBFD
:10417000084B00251E1C084CE41AA410A54204D0CC
:10418000AB00F35898470135F8E770BD24010020D3
:1041900024010020240100202C010020F0B58B898F
:1041A00091B09B0706D50B1C47330B600B610123B5
:1041B0004B6145E00C1C0E23C95E061C002904DA85
:1041C0008023A5891D4010D10CE001AA00F0DEFD7E
:1041D0000028F5DBF023029D1B021D40194BED1852
:1041E0006B425D418027FF0001E000254027301C25
:1041F000391C01F077FA00280CD1A3899A051FD445
:1042000002221343A381231C47332360236101232C
:10421000636115E080220C4BB362A38920601343D5
:10422000A38120616761002D0AD00E23E15E301C5E
:1042300000F0BEFD002803D00122A3891343A3810F
:1042400011B0F0BD00E0FFFFB13D000808B5034B21
:10425000011C186801F046FA08BDC0462001002084
:1042600008B5034B011C186801F044FA08BDC046AC
:1042700020010020C9B28218904204D003788B42FA
:1042800002D00130F8E700207047002310B59342B8
:1042900003D0CC5CC4540133F9E710BD031C821871
:1042A000934202D019700133FAE77047936810B552
:1042B000013B9360002B05DA9469A34208DBCBB283
:1042C0000A2B05D01368581C10601970C8B201E0A1
:1042D00000F032FC10BDF8B5061C0F1C141CD518DC
:1042E000AC4208D02178301C3A1CFFF7DFFF0134C4
:1042F000431CF5D100E00020F8BD0000F0B59FB0F0
:10430000061C0F1C02920593002804D08369002B21
:1043100001D1FFF78FFD794B9F4201D1776808E00B
:10432000774B9F4201D1B76803E0764B9F4200D1A3
:10433000F768BB891B070AD53B69002B07D0002310
:1043400006AD6B6120336B761033AB763DE0301CED
:10435000391C00F05DFC0028F1D001204042CAE089
:10436000059A111D12680591002A7EDB099201341D
:1043700023782E2B00D189E0217863480322FFF7B0
:1043800079FF002808D0604B0134C01A40238340D5
:10439000181C2B68184328602178631C5B48062290
:1043A00002932976FFF766FF002800D191E0584B71
:1043B000002B00D084E00722059B0733934308338A
:1043C00005936B69039A9B186B61029C2378002B01
:1043D00004D1029BE31A049311D003E0252BF8D0FB
:1043E0000134F3E7049B301C391C029AFFF773FF7A
:1043F000431C7BD06A69049B944663446B612378B9
:10440000002B73D00122002352426A6002A9543269
:10441000521801342B60EB60AB601370AB652178F0
:104420003C480522FFF726FF002809D0394B01340C
:10443000C01A01238340181C2B6818432860EEE73C
:104440002B68DA0604D55322202102A81218117015
:104450001A0704D553222B2102A8121811702278B2
:104460002A2A00D17CE7099B05E05242EA60022239
:1044700013432B607BE72278303A092A04D80A21BB
:104480004B4301349B18F6E7099371E763782A2BB5
:1044900009D1059B02341A1D1B680592002B0DDA09
:1044A00001235B420AE0002301342278303A092AD2
:1044B00004D80A214B4301349B18F6E707935BE7C6
:1044C00005AB0093301C291C3A1C134B00E000BFC5
:1044D00007E005AB0093301C291C3A1C0E4B00F082
:1044E00099F80390039B013300D06AE7BB895B0610
:1044F00000D532E70B981FB0F0BDC046F861000848
:1045000018620008386200086262000866620008EB
:10451000000000005C620008D742000838B5051CA6
:104520000C1C131C034A291C1068221CFFF7E6FE12
:1045300038BDC04620010020F7B5171C01930A6959
:104540008B6800900C1C934200DA131C221C3B6009
:1045500043321278002A01D001333B6023689B0666
:1045600002D53B6802333B60062523681D401ED000
:10457000231C43331B785A1E9341226892061CD594
:104580003020E1184031C870211C5A1C453109788F
:10459000A21840320233D1700FE0221C0123009890
:1045A00001991932089EB047431C0ED00135E368CB
:1045B0003A689B1A9D42F0DBDAE7221C00980199C9
:1045C0004332089DA847431C02D10120404220E00D
:1045D00006232068E1683A6803400025042B03D1D4
:1045E0008D1AEB43DB171D40A3682269934201DD5E
:1045F0009B1AED180027AF420ADA221C012300980B
:1046000001991A32089EB047431CDED00137F2E709
:104610000020FEBDF0B58BB006920A1C4332079312
:10462000059004920A7E0C1C109B6E2A00D1A8E013
:1046300011D8632A22D009D8002A00D1B2E0582A22
:1046400000D0C2E045310A707C4A4FE0642A1DD098
:10465000692A1BD0B9E0732A00D1A7E009D86F2AD4
:1046600029D0702A00D0B0E0202209680A432260D5
:1046700037E0752A1FD0782A33D0A6E00E1C1A68BE
:104680004236111D196013683370A1E021681A6861
:10469000080606D4490604D5111D19600023D55E0D
:1046A00002E0111D19601568002D3BDA2D23049AD4
:1046B0006D42137036E021681A68080606D4490670
:1046C00004D51568111D1960ADB202E0111D196005
:1046D00015685A4B227E03930A276F2A1DD108279B
:1046E0001BE0221C782145321170554A196803924B
:1046F000081D226818600D68100602D4500600D507
:10470000ADB2D30702D520231A4322601027002D13
:1047100003D1202322689A432260231C00224333C2
:104720001A7002E00A27454B03936368A360002BCD
:1047300003DB0422216891432160002D02D1049EF5
:10474000002B0ED0049E281C391C00F065FD039B35
:10475000013E5B5C281C3370391C00F0D7FC051E41
:10476000F1D1082F09D12368DB0706D563682269D8
:10477000934202DC3023013E3370049B9B1B236178
:104780002BE009681A68080607D4490605D5111DEB
:1047900019601368A28A1A8004E0111D1960136859
:1047A00062691A600023049E236116E01A68111DD5
:1047B000196016680021301C6268FFF75BFD002855
:1047C00001D0801B6060636803E0261C42363270B3
:1047D000012323610023049A1370079B059800931B
:1047E000211C069B09AAFFF7A7FE431C02D101204A
:1047F000404221E0236905980699321C079DA8478D
:10480000431CF4D023689B0705D4099BE0689842B9
:1048100012DA181C10E00025E368099A9B1A9D42E1
:10482000F3DA221C0123059806991932079EB04736
:10483000431CDCD00135EFE70BB0F0BD6D62000822
:104840007E62000838B5051C0020074C2060081C5B
:10485000111C1A1CFCF79AFB431C03D12368002B84
:1048600000D02B6038BDC046E00400200FB40B4BD5
:1048700013B51C68002C05D0A369002B02D1201CA5
:10488000FFF7D8FA05AB201CA168049A0193FFF743
:1048900035FD16BC08BC04B01847C04620010020F6
:1048A00008B54A424A4180235200DB0000F002F87A
:1048B00008BD0000F7B51E1C3C4B041C1D680F1CF6
:1048C0000192002D05D0AB69002B02D1281CFFF707
:1048D000B1FA374B9C4201D16C6808E0354B9C42E1
:1048E00001D1AC6803E0344B9C4200D1EC68019BE1
:1048F000022B58D8002E56DB281C211CFFF718FA73
:1049000000236360A361A3891B0603D5281C2169CA
:1049100000F0F0FE8322A3899343A381019B022B25
:1049200013D0002F25D1002E01D18026F600301C97
:10493000FFF78CFC071E18D18020C000FFF786FC13
:10494000071E10D10120404200E000200222A3896E
:104950001343A3810023A360231C473323602361F7
:104960000123636121E08026F6008022A38913439E
:10497000A381019B012B05D1A389019A1A4373429C
:10498000A281A3610D4B0020AB62A2892760276141
:104990006661130709D503231A40534253415B4212
:1049A0001E40A66001E001204042FEBD2001002023
:1049B000F86100081862000838620008B13D00087C
:1049C00038B50C1C0E25495F00F082FB002803DB84
:1049D000636D1B18636503E0A289024B1340A3813A
:1049E00038BDC046FFEFFFFFF8B51E1C8B89051CC4
:1049F0000C1C171CDB0505D50E23C95E0022022303
:104A000000F0E8F9A289054B281C1340A3813A1C49
:104A10000E23E15E331C00F0E7F8F8BDFFEFFFFF67
:104A200038B50C1C0E25495F00F0D4F9A389421C4F
:104A300003D1054A1340A38104E0802252011343AD
:104A4000A381606538BDC046FFEFFFFF08B50E23A8
:104A5000C95E00F051F908BD02780B78002A03D036
:104A6000013001319A42F7D0D01A70470023C25C5E
:104A70000133002AFBD1581E7047002330B59A42FB
:104A80000DD0013AC45CCD5CAC4202D1934202D15C
:104A9000251C631B03E00133002CF3D1F8E7181C3D
:104AA00030BD031C30B51C78002C09D00A1C1578C9
:104AB000002D05D0AC4201D00132F8E70133F2E716
:104AC000181A30BD30B5151C9BB0002A04DA8B23B0
:104AD0000360012040421DE082226C460091049157
:104AE00000219200A2818D4200D0691E1A1C012370
:104AF0000291059169465B42CB811E9B041C00F02C
:104B0000F1F9431C01DA8B232360002D02D000232E
:104B1000009A13701BB030BD73B5061C0D1C141C1D
:104B20000093044B311C2A1C1868231CFFF7CAFF92
:104B300076BDC0462001002070B5051C0E1C141C5B
:104B4000002804D08369002B01D1FFF773F9234BB0
:104B50009C4201D16C6808E0214B9C4201D1AC68B9
:104B600003E0204B9C4200D1EC68A369A360A389B9
:104B70001B070AD52369002B07D023682269F6B2E8
:104B8000981A636998420FDB08E0281C211C00F08A
:104B90003FF80028F1D0012040421DE0281C211CD4
:104BA000FFF7C6F80028F6D1A3680130013BA360E7
:104BB00023685A1C22601E706369984205D0A3893D
:104BC000301CDB0708D50A2E06D1281C211CFFF754
:104BD000AFF80028DFD1301C70BDC046F861000876
:104BE000186200083862000838B5051C0020074C20
:104BF0002060081C111C1A1CFCF762F8431C03D12E
:104C00002368002B00D02B6038BDC046E004002094
:104C1000354B70B51D68061C0C1C002D05D0AB690A
:104C2000002B02D1281CFFF705F9304B9C4201D123
:104C30006C6808E02E4B9C4201D1AC6803E02D4B20
:104C40009C4200D1EC68A3899AB2110723D4D10603
:104C500007D409220120326037321343A381404236
:104C600040E0530713D5616B002908D0231C44335F
:104C7000994202D0301C00F03DFD002363632422E2
:104C8000A3899343A38100236360236923600822DF
:104C9000A3891343A3812369002B0BD1A023A289ED
:104CA0009B00134080229200934203D0301C211CB1
:104CB000FFF774FA0123A289134005D00023A360F3
:104CC00063695B42A36103E0910700D46369A36059
:104CD00000202369834205D1130603D540231A43DC
:104CE000A281013870BDC04620010020F861000893
:104CF000186200083862000838B50023064C051C0D
:104D0000081C2360FBF7BCFF431C03D12368002B66
:104D100000D02B6038BDC046E00400200B7830B5D1
:104D2000722B0ED0772B07D0612B0ED182258420D9
:104D3000AD00012340001BE0C0250123ED00082049
:104D400016E0002504202B1C12E01623036000202F
:104D50001BE0622C11D0782C12D02B2C08D10F3CE8
:104D6000A0430C3C20430D3CA3431C1C02232343C3
:104D700001310C78002CECD105E080246402F6E7C8
:104D800080242401F3E72B43136030BD38B50023A2
:104D9000064C051C081C111C2360FCF731F8431C51
:104DA00003D12368002B00D02B6038BDE004002025
:104DB00038B50023064C051C081C2360FBF7E0FFF8
:104DC000431C03D12368002B00D02B6038BDC046A4
:104DD000E004002038B5051C0020074C2060081CAA
:104DE000111C1A1CFBF7EAFF431C03D12368002B9C
:104DF00000D02B6038BDC046E004002010B58142D1
:104E000008D28B18984205D29B1A013A09D3995CB3
:104E10008154FAE70023934203D0CC5CC45401339D
:104E2000F9E710BDF0B58E6885B0071C0C1C039225
:104E30000193B34245D390238A89DB001A423DD0C7
:104E400003250969236801985B1A029363695D432E
:104E5000EB0F5D19029B6D1001331B189D4200D2B0
:104E60001D1C381C53050FD5291C00F03BFC061EE9
:104E700013D0029A2169FFF708FAA289184B134050
:104E800080221343A38111E02A1C00F02FFC061E90
:104E90000CD1381C216900F02DFC0C23402201208C
:104EA0003B60A38940421343A38117E0029B266124
:104EB000F61826606561019EED1AA560019BB3425C
:104EC00000D2019E321C20680399FFF797FF002053
:104ED000A3689B1BA36023689E19266005B0F0BDE4
:104EE0007FFBFFFFF0B59FB0029005938B890E1CEE
:104EF000171C1B0610D50B69002B0DD1402100F0AB
:104F0000F1FB30603061002804D10C23029A013893
:104F10001360D0E040237361002306AD6B61203342
:104F20006B761033AB763C1C2378002B03D1E31B4C
:104F3000049312D003E0252BF9D00134F4E7049B4D
:104F40000298311C3A1CFFF76DFF431C00D1ACE006
:104F50006A69049B944663446B612378002B00D1FB
:104F6000A3E00122002352426A6002A9543252187F
:104F700001342B60EB60AB601370AB654F4F217851
:104F8000381C0522FFF776F9002808D0C01B01273E
:104F90008740381C2B68013418432860EEE72B68E3
:104FA000DA0604D55322202102A8121811701A071C
:104FB00004D553222B2102A81218117022782A2A14
:104FC00001D0099B0EE0059A111D12680591002A77
:104FD00001DB099204E05242EA60022213432B6093
:104FE000013409E02278303A092A04D80A214B43D7
:104FF00001349B18F6E7099323782E2B18D1637898
:105000002A2B09D1059B02341A1D1B680592002B1F
:105010000DDA01235B420AE0002301342278303AA2
:10502000092A04D80A214B4301349B18F6E7079359
:10503000234F2178381C0322FFF71CF9002807D0E2
:10504000C01B40278740381C2B6801341843286058
:1050500021781C480622671C2976FFF70BF90028E7
:1050600012D0194B002B06D10722059B073393431F
:105070000833059314E005AB00930298291C321CF9
:10508000124B00E000BF07E005AB00930298291C1B
:10509000321C0E4BFFF7BEFA0390039B013304D082
:1050A0006B69039A9B186B613DE7B3890B985B06AC
:1050B00001D5012040421FB0F0BDC0465C6200082F
:1050C000626200086662000800000000254E0008C9
:1050D00038B5051C0020074C2060081C111C1A1C48
:1050E000FBF720FE431C03D12368002B00D02B606C
:1050F00038BDC046E004002002B4714649084900AA
:10510000095C49008E4402BC7047C0460022430837
:105110008B4274D303098B425FD3030A8B4244D37F
:10512000030B8B4228D3030C8B420DD3FF220902C1
:1051300012BA030C8B4202D31212090265D0030B80
:105140008B4219D300E0090AC30B8B4201D3CB0376
:10515000C01A5241830B8B4201D38B03C01A5241B8
:10516000430B8B4201D34B03C01A5241030B8B42BA
:1051700001D30B03C01A5241C30A8B4201D3CB02A5
:10518000C01A5241830A8B4201D38B02C01A52418A
:10519000430A8B4201D34B02C01A5241030A8B428D
:1051A00001D30B02C01A5241CDD2C3098B4201D3A5
:1051B000CB01C01A524183098B4201D38B01C01A23
:1051C000524143098B4201D34B01C01A524103099A
:1051D0008B4201D30B01C01A5241C3088B4201D349
:1051E000CB00C01A524183088B4201D38B00C01AF6
:1051F000524143088B4201D34B00C01A5241411A1D
:1052000000D20146524110467047FFE701B5002029
:1052100000F00CF802BDC0460029F7D003B5FFF737
:1052200075FF0EBC4243891A1847C0467047C046F6
:105230009140031C90409C46203A934019435242AF
:105240006346D34019437047002B11D1002A0FD178
:10525000002900D1002802D00021C943081C07B44E
:10526000024802A14018029003BDC046C1FFFFFFE3
:1052700003B4684601B5029800F04CF8019B9E46C5
:1052800002B00CBC7047C046F0B54F464646050418
:105290002D0C2C1CC0B41704160C3F0C9946030CA3
:1052A0007C4375435F4373437D19260CAD199C46BF
:1052B000AF4203D980235B029846C4444B46514316
:1052C000434324042E0C240C2D0466442C19591835
:1052D0008919201C0CBC90469946F0BDF0B583B0EE
:1052E000161C1F1C0090019100F04CF8041C0D1CB2
:1052F000221C2B1C301C391CFFF7C6FF009A019B97
:10530000121A8B410899201C0A604B60291C03B0BB
:10531000F0BDC046F0B5141C83B01D1C0090019177
:1053200000F028F9221C2B1C061C0F1CFFF7ACFFF9
:10533000009A019B121A8B410899301C0A604B603D
:10534000391C03B0F0BDC0461C2101231B04984248
:1053500001D3000C10391B0A984201D3000A083906
:105360001B09984201D30009043902A2105C4018BD
:105370007047C04604030202010101010000000061
:1053800000000000F0B544465F4656464D46F0B476
:105390001C1C85B0002900DAA9E00F1C0021061CA6
:1053A0008846101C191C002C00DA97E0341C3D1CA8
:1053B00082468946B94273D870D04946504600F0BB
:1053C00085F98346391C301C00F080F95B46181AB9
:1053D000031C8346203B9C4600D59CE00023002212
:1053E0005146009201936346994001915146814094
:1053F000019B0091BB4200D983E000D17EE0009A7E
:10540000019B341C3D1CA41A9D416346002B00DA0D
:105410009AE0002600270296039701369E400396E5
:10542000012686400296002800D171E00099019A79
:10543000D30799464B464E081E43570800230122C6
:105440000CE0AF4201D1A6420AD8A41BBD412419E9
:105450006D410138A4185D41002806D0AF42F0D953
:10546000013824196D410028F8D12022029E039FA3
:105470005B46524236196F4199185AD4281CC840CD
:105480002C1C5B46DC40002968DB041C8C40231C80
:1054900059468840021CB61A9F4103E0B0428CD99D
:1054A0000026002741464B1E99410023009101939D
:1054B000009A019B002554429D41331C6340181CF7
:1054C0003B1C6B40191C009B019CC018614105B03E
:1054D0003CBC90469946A246AB46F0BD4346DB43F2
:1054E0000C1C9846131C00215842A1415EE700277E
:1054F00046428F4101214942884652E7B14200D8D5
:105500007DE70026002702960397002800D08DE74C
:10551000029E039FC6E720215346091ACB40002272
:10552000191C0023009201934B4683400B430193C7
:105530005CE75A4620239B1A2A1C9A40201C131C05
:105540005A46D04018439BE720260027331A0026EE
:10555000029603970127DF40039761E75B4620210E
:105560005D46C91A031CAC40CB40191C231C0B43DD
:105570008EE7C046F0B545464E465746E0B4041C9B
:1055800082B00D1C914698468B4262D85FD041464E
:10559000484600F09BF8291C061C201C00F096F8D9
:1055A0002023311A5B428A46C81865D44B46834093
:1055B0001F1C4B468B401E1CAF4258D855D0A41B15
:1055C000BD41002800DA77E0002200230092019319
:1055D00001328240019201238B40009300293CD08C
:1055E000FB079846404672087B08024301260027C5
:1055F0000CE0AB4201D1A2420AD8A41A9D41241961
:105600006D410139A4197D41002906D0AB42F0D982
:10561000013924196D410029F8D1202200980199FF
:1056200053465242001969419E183AD42F1CF74044
:105630005346DD40002E29DB3C1CB440231C54465D
:10564000A7403A1C801A99410090019105E08242DE
:105650009DD900230024009301940098019902B081
:105660001CBC90469946A246F0BDA342A7D9002291
:10567000002300920193B1E720224B46521AD340F7
:105680001A1C43468B401F1C174392E753462024A5
:105690005646E41A3B1CB540E3401C1C2B1C23431C
:1056A000CDE7524620239B1A2A1C9A40271C131C24
:1056B0005246D7401F43BBE720230022581A00233D
:1056C000009201930132C240019284E710B5002993
:1056D00003D1FFF739FE203002E0081CFFF734FE4B
:1056E00010BDC04610B500F04FF810BD10B500F069
:1056F000A3F810BD10B500F001F810BD30B50029B9
:105700003ED004390B68002B00DAC9181D4A136813
:10571000141C002B02D14B60116031E099420DD274
:1057200008680A189A4203D11368C3180B605368BB
:105730004B60216024E08A4203D8131C5A68002A77
:10574000F9D11D685C198C420BD109686918581889
:105750001960904214D110685268091819605A6093
:105760000EE08C4202D90C23036009E008680C1893
:10577000944203D114685268001908604A60596065
:1057800030BDC04604040020032370B5CC1C9C43EC
:105790000834051C0C2C01D20C2405E0002C03DA83
:1057A0000C2300202B6042E08C42F9D3204A13687E
:1057B000101C191C002913D00A68121B0DD40B2AC7
:1057C00002D90A608B181FE08B4202D15A6802602E
:1057D0001BE04A685A600B1C17E00B1C4968E9E79C
:1057E000144E3368002B03D1281C00F04BF83060B6
:1057F000281C211C00F046F8031C421CD0D00322B8
:10580000C61C964386420AD11C60181C07210B3027
:105810001A1D8843821A0AD05142995007E0311A62
:10582000281C00F02FF8431CBAD0331CECE770BDE5
:105830000404002000040020F8B5061C0C1C151CF4
:10584000002904D1111CFFF74DFF041C18E0002AA9
:1058500003D1FFF74FFF2C1C12E000F025F8A842FF
:105860000ED2301C291CFFF73DFF071E07D0211C5C
:105870002A1CFEF70AFD301C211CFFF73BFF3C1CD5
:10588000201CF8BD38B50023064C051C081C2360FD
:10589000FBF7E4FA431C03D12368002B00D02B60F4
:1058A00038BDC046E00400200B1F1A68101F002AF4
:1058B00004DA891804390B68D018043870470000DE
:1058C000F8B5C046F8BC08BC9E467047F8B5C0465F
:1058D000F8BC08BC9E46704773746172742064699A
:1058E0006D69747269730D0A00616C6976650D0AE1
:1058F00000693D25640D0A005265616420473A2025
:1059000025730A005265616420413A2025730A001C
:10591000536C6176652100000900000000540040CE
:105920000A04000016000000005400400A010000B4
:10593000FFFF0000FFFFFFFF000000000A00000063
:10594000005400400A04000017000000005400400A
:105950000A010000FFFF0000FFFFFFFF0000000042
:105960000300000000380140120100000A0000009E
:1059700000380140120100000F0000000038014013
:105980001201000017000000003801401200000062
:10599000FFFF0000FFFFFFFF00000000010000000C
:1059A00000380140120100000200000000380140F0
:1059B000120100000900000000380140120100003F
:1059C000160000000038014012000000FFFF000038
:1059D000FFFFFFFF0000000050696E6D61702065E1
:1059E00072726F723A2077726F6E6720706F727486
:1059F000206E756D6265722E002F686F6D652F6A5F
:105A0000656E6B696E732F6D6265645F6A656E6B40
:105A1000696E735F6E6F6465322F776F726B737030
:105A20006163652F626D5F777261702F3136383137
:105A30002F6D6265642D6F732F7461726765747367
:105A40002F5441524745545F53544D2F6770696F2F
:105A50005F6170692E630070696E20213D202850BF
:105A6000696E4E616D65294E43002F686F6D652F1D
:105A70006A656E6B696E732F6D6265645F6A656ED1
:105A80006B696E735F6E6F6465322F776F726B73C5
:105A9000706163652F626D5F777261702F31363888
:105AA000312F6D6265642D6F732F74617267657439
:105AB000732F5441524745545F53544D2F693263FD
:105AC0005F6170692E630028687A203D3D20313087
:105AD0003030303029207C7C2028687A203D3D20E1
